:100000000C9463000C948B000C948B000C948B006C
:100010000C948B000C948B000C948B000C94210599
:100020000C948B000C948B000C948B000C948B0024
:100030000C948B000C948B000C948B000C948B0014
:100040000C94D7040C948B000C94A3050C947D05A0
:100050000C948B000C948B000C948B000C948B00F4
:100060000C948B000C948B000000000023002600F1
:10007000290000000000240027002A0000000008DA
:10008000000201000003040700000000000000005F
:10009000010204081020408001020408102001021F
:1000A0000408102000000000250028002B00040494
:1000B0000404040404040202020202020303030310
:1000C000030302001A0611241FBECFEFD8E0DEBFE3
:1000D000CDBF11E0A0E0B1E0ECE3F5E102C0059096
:1000E0000D92AA32B107D9F721E0AAE2B1E001C02E
:1000F0001D92A53FB207E1F710E0C3E6D0E004C0CF
:100100002197FE010E94820AC236D107C9F70E94D8
:1001100055060C949C0A0C94000090E0FC01E458F5
:10012000FF4F2491FC01E057FF4F3491FC01E25551
:10013000FF4FE491EE2309F43CC0222339F1233030
:1001400091F038F42130A9F0223001F584B58F7D8B
:1001500012C0273091F02830A1F02430B9F48091FA
:1001600080008F7D03C0809180008F778093800016
:100170000DC084B58F7784BD09C08091B0008F77A2
:1001800003C08091B0008F7D8093B000F0E0EE0F4F
:10019000FF1FEC55FF4FA591B4919FB7F8946111E3
:1001A00004C08C913095382302C0EC913E2B3C93D7
:1001B0009FBF0895CF93DF9390E0FC01E057FF4F7E
:1001C0002491FC01E255FF4F8491882361F190E076
:1001D000880F991FFC01EE58FF4FC591D491FC0187
:1001E000EC55FF4FA591B491611109C09FB7F894E8
:1001F0008881209582238883EC912E230BC0623066
:1002000061F49FB7F8948881322F309583238883D7
:10021000EC912E2B2C939FBF06C08FB7F894E881EA
:100220002E2B28838FBFDF91CF9108954F925F923D
:100230006F927F928F929F92AF92BF92CF92DF92F6
:10024000EF92FF920F931F93CF93DF9300D000D0D4
:100250001F92CDB7DEB78C012A013B0180910001CE
:10026000883021F08F3F09F03DC205C0E2ECF0E09C
:1002700024912D8372C088E080930001E2ECF0E0CD
:1002800084918D838F3F09F42DC2813009F441C0E0
:1002900038F1823009F061C01092B0001092B100C4
:1002A0008091B00082608093B0008091B100816045
:1002B0008093B100E6EBF0E0E491F0E0EE0FFF1F79
:1002C000EC55FF4F859194919093410180934001AB
:1002D000E8E9F0E0E491E0933F0122E02D83FDC1E5
:1002E00014BC15BC84B5826084BD85B5816085BDB4
:1002F000E6EBF0E0E491F0E0EE0FFF1FEC55FF4F6E
:1003000085919491E8E9F0E0E491E09343011D8246
:10031000E4C1109280001092810080918100886079
:100320008093810080918100816080938100E6EB61
:10033000F0E0E491F0E0EE0FFF1FEC55FF4F8591E8
:100340009491E8E9F0E0E491E093420161E088E013
:100350000E94DA0091E09D838AC08D8187FDC2C131
:1003600061E088E00E94DA008D818D7F09F07FC016
:100370004801A12CB12C60E072E18AE790E0A50170
:1003800094010E94440A29833A834B835C83690168
:100390007A0191E0C91AD108E108F1082FEFC216DD
:1003A000D104E104F10409F008F44EC060E472E401
:1003B0008FE090E0A50194010E94440A69017A014E
:1003C00081E0C81AD108E108F1089D81923009F551
:1003D0002FEFC216D104E104F10409F008F444C17E
:1003E00060E970ED83E090E0A50194010E94440A69
:1003F00069017A0181E0C81AD108E108F1089FEF8C
:10040000C916D104E104F10411F008F0BAC083E088
:1004100027C02FEFC216D104E104F104B9F0B0F007
:1004200068E478EE81E090E0A50194010E94440A1E
:1004300069017A0181E0C81AD108E108F1089D81BB
:10044000992309F413C1DCC081E001C082E09D81E1
:10045000911106C095B5987F892B85BD44C085E074
:100460009091B100987F892B8093B1003CC04801E6
:10047000A12CB12C60E072E18AE790E0A501940123
:100480000E94440A69017A0181E0C81AD108E10892
:10049000F108C114D10491E0E906F10488F068E4A0
:1004A00078EE81E090E0A50194010E94440A690180
:1004B0007A0181E0C81AD108E108F10883E001C09F
:1004C00081E09D81913079F490918100987F892B12
:1004D00080938100411451046104710449F42FEFA9
:1004E0003FEFA9012CC0411451046104710471F063
:1004F000D801AA0FBB1FA30192010E94630A28EE34
:1005000033E040E050E00E94220A03C02FEF3FEFAB
:10051000A9018D81813099F0823019F18111E2C0F9
:10052000C7BC20934C0130934D0140934E01509332
:100530004F0180916E00826080936E00D3C0D09294
:100540008900C0928800209348013093490140936C
:100550004A0150934B0180916F00826080936F003D
:10056000C1C0C092B3002093440130934501409331
:100570004601509347018091700082608093700023
:10058000B1C068E478EE81E090E0A50194010E949A
:10059000440A69017A0191E0C91AD108E108F10819
:1005A0002FEFC216D104E104F10441F138F164E205
:1005B00074EF80E090E0A50194010E94440A690173
:1005C0007A0181E0C81AD108E108F1089FEFC91645
:1005D000D104E104F10409F008F441CF62E17AE7C3
:1005E00080E090E0A50194010E94440A69017A012B
:1005F00081E0C81AD108E108F10819C084E030CFC1
:100600002FEFC216D104E104F10409F008F463C02D
:1006100062E17AE780E090E0A50194010E94440A3B
:1006200069017A0191E0C91AD108E108F1088FEF58
:10063000C816D104E104F104A9F0A0F089819A81DF
:10064000AB81BC812AE0B595A795979587952A95AA
:10065000D1F76C017D0121E0C21AD108E108F1084F
:1006600087E0FECE86E0FCCE82E0FACE8FEFC816A1
:10067000D104E104F10469F160F162E17AE780E01C
:1006800090E0A50194010E94440A69017A0191E079
:10069000C91AD108E108F1082FEFC216D104E1040C
:1006A000F104A9F0A0F089819A81AB81BC813AE084
:1006B000B595A795979587953A95D1F76C017D01EA
:1006C00021E0C21AD108E108F10885E0C3CE84E038
:1006D000C1CE83E0BFCE84E0BACE61E088E00E9464
:1006E000DA0046CE0F900F900F900F900F90DF9191
:1006F000CF911F910F91FF90EF90DF90CF90BF901F
:10070000AF909F908F907F906F905F904F900895E3
:1007100090910001891324C0E2ECF0E0E4919FEF96
:1007200090930001E130B9F098F0E230C9F4909173
:1007300070009D7F9093700091E09093B000909135
:10074000B100987F94609093B1001092B30008C0FC
:1007500010926E0005C090916F009D7F90936F0086
:1007600060E00C948D00CF92DF92EF92FF920F9396
:100770001F93CF93DF936C017A018B01C0E0D0E02F
:10078000CE15DF0581F0D8016D918D01D601ED9177
:10079000FC910190F081E02DC6010995892B11F0A3
:1007A0002196EECF7E01C701DF91CF911F910F916E
:1007B000FF90EF90DF90CF900895089580E090E053
:1007C0000895FC01538D448D252F30E0842F90E057
:1007D000821B930B541710F0CF960895019708953C
:1007E000FC01918D828D981761F0828DDF01A80F39
:1007F000B11D5D968C91928D9F5F9F73928F90E05B
:1008000008958FEF9FEF0895FC01918D828D9817C9
:1008100031F0828DE80FF11D858D90E008958FEF06
:100820009FEF0895FC01918D228D892F90E0805CCF
:100830009F4F821B91098F739927089580E591E05E
:100840000E94120421E0892B09F420E0822F0895F0
:10085000FC01848DDF01A80FB11DA35ABF4F2C915D
:10086000848D90E001968F739927848FA689B7892C
:100870002C93A089B1898C91837080648C93938D23
:10088000848D981306C00288F389E02D80818F7DC6
:1008900080830895EF92FF920F931F93CF93DF937E
:1008A000EC0181E0888F9B8D8C8D981305C0E889C1
:1008B000F989808185FD26C0F62E0B8D10E00F5F33
:1008C0001F4F0F731127E02E8C8DE8120CC00FB64E
:1008D00007FCFACFE889F989808185FFF5CFCE0141
:1008E0000E942804F1CF8B8DFE01E80FF11DE35A21
:1008F000FF4FF0829FB7F8940B8FEA89FB898081C4
:1009000080620AC09FB7F894EE89FF896083E88906
:10091000F98980818370806480839FBF81E090E04B
:10092000DF91CF911F910F91FF90EF900895CF939A
:10093000DF93EC01888D8823C9F0EA89FB898081E7
:1009400085FD05C0A889B9898C9186FD0FC00FB6B9
:1009500007FCF5CF808185FFF2CFA889B9898C91FA
:1009600085FFEDCFCE010E942804E7CFDF91CF9124
:10097000089580E090E0892B29F00E941E048111E7
:100980000C9400000895009769F0FC01019000208C
:10099000E9F73197AF01481B590BBC0180E591E0A5
:1009A0000C94B30380E090E008950E94970A1F9290
:1009B0000F920FB60F9211242F933F938F939F9313
:1009C000AF93BF9380913B0190913C01A0913D0179
:1009D000B0913E0130913A0123E0230F2D3720F4EE
:1009E0000196A11DB11D05C026E8230F0296A11D89
:1009F000B11D20933A0180933B0190933C01A09359
:100A00003D01B0933E018091360190913701A09154
:100A10003801B09139010196A11DB11D80933601B5
:100A200090933701A0933801B0933901BF91AF91F2
:100A30009F918F913F912F910F900FBE0F901F901C
:100A400018951F920F920FB60F9211242F933F9378
:100A50004F935F936F937F938F939F93AF93BF93C6
:100A6000EF93FF938091440190914501A09146013D
:100A7000B0914701892B8A2B8B2B51F190913F012B
:100A8000E0914001F091410180818927808380912C
:100A9000440190914501A0914601B091470118167B
:100AA00019061A061B06C4F4809144019091450171
:100AB000A0914601B09147010197A109B109809326
:100AC000440190934501A0934601B093470104C0AF
:100AD000809100010E948803FF91EF91BF91AF9137
:100AE0009F918F917F916F915F914F913F912F9146
:100AF0000F900FBE0F901F9018951F920F920FB678
:100B00000F9211242F933F934F935F936F937F9393
:100B10008F939F93AF93BF93EF93FF9380E591E003
:100B20000E942804FF91EF91BF91AF919F918F9107
:100B30007F916F915F914F913F912F910F900FBED9
:100B40000F901F9018951F920F920FB60F921124BD
:100B50002F938F939F93EF93FF93E0916001F09118
:100B600061018081E0916601F091670182FD12C010
:100B70009081809169018F5F8F7320916A01821744
:100B800051F0E0916901F0E0E05BFE4F958F8093BA
:100B9000690101C08081FF91EF919F918F912F9109
:100BA0000F900FBE0F901F901895CF92DF92EF928B
:100BB000FF920F931F93E82FF92F05C001501109E1
:100BC0002109310961F1908196239417B9F305C089
:100BD000015011092109310911F1908196239413D3
:100BE000F7CFC12CD12CE12CF12C0AC08FEFC81A01
:100BF000D80AE80AF80A0C151D052E053F0579F0FC
:100C000080818623841791F36C2D7D2D8E2D9F2D51
:100C10001F910F91FF90EF90DF90CF90089560E0CB
:100C200070E080E090E01F910F91FF90EF90DF90D7
:100C3000CF900895E0E5F1E01382128288EE93E010
:100C4000A0E0B0E084839583A683B78385E091E03C
:100C50009183808385EC90E09587848784EC90E095
:100C60009787868780EC90E0918B808B81EC90E079
:100C7000938B828B82EC90E0958B848B86EC90E05A
:100C8000978B868B118E128E138E148EEDEEF1E003
:100C90008AE097EDA3E2BEE380839183A283B383CE
:100CA00014821582168217820895CF93DF93CDB7F1
:100CB000DEB7A1970FB6F894DEBF0FBECDBF789414
:100CC00084B5826084BD84B5816084BD85B5826051
:100CD00085BD85B5816085BD80916E008160809302
:100CE0006E0010928100809181008260809381006B
:100CF000809181008160809381008091800081607B
:100D0000809380008091B10084608093B1008091D5
:100D1000B00081608093B00080917A0084608093FD
:100D20007A0080917A00826080937A0080917A00C4
:100D3000816080937A0080917A00806880937A0045
:100D40001092C10061E088E00E94DA0061E089E071
:100D50000E94DA0060E08AE00E94DA00E09160011F
:100D6000F091610182E08083E0915C01F0915D018E
:100D70001082E0915E01F0915F018FEC8083109210
:100D80006801E0916401F091650186E08083E09163
:100D90006201F0916301808180618083E091620152
:100DA000F0916301808188608083E0916201F0911D
:100DB0006301808180688083E0916201F09163012A
:100DC00080818F7D808383E191E00E94C3048CE168
:100DD00091E00E94C30443E0242E312C5AE0C52E3A
:100DE000D12CE12CF12C60E089E00E948D00C10142
:100DF0000197F1F761E089E00E948D0083E290E0C5
:100E00000197F1F760E089E00E948D00EAE9F0E0E7
:100E10006491E8EBF0E08491E82FF0E0EE0FFF1F23
:100E2000E859FF4F8591949100E412E42FE030E0FF
:100E3000462F0E94D505611571058105910549F080
:100E4000DC01CB010196A11DB11DBC01CD019F703C
:100E500003C060E070E0CB014090ED015090EE01E6
:100E60006090EF017090F0010E94150926E933E4CB
:100E70004BE05DE30E94A10920E030E040E05FE349
:100E80000E94A1090E94DD08072E000C880B990B17
:100E90000E941509A30192010E94A1094B015C0166
:100EA000A301920160E070E080E89FE30E94700877
:100EB0002091F1013091F2014091F3015091F40140
:100EC0000E94A1099B01AC01C501B4010E947108F7
:100ED0006093F1017093F2018093F3019093F40118
:100EE0000E94DD0870933501609334018FE191E039
:100EF0000E94C3044090340150903501052C000C31
:100F00006608770877FE20C06DE280E591E00E94D8
:100F10004A0422273327A90124193509460957090C
:100F200019A28E010F5D1F4FCA01B901A7019601D9
:100F30000E94220A605DF80162938F01211531053C
:100F40004105510589F715C0A301920119A28E012F
:100F50000F5D1F4FCA01B901A70196010E94220A25
:100F6000605DF80162938F0121153105410551053E
:100F700089F7C8010E94C3048CE191E00E94C30478
:100F800080913401909135012091320130913301EB
:100F9000281B390B37FF03C031952195310964E1D6
:100FA00070E00E940E0A62177307FCF08FB7F89486
:100FB00040913B0150913C0160913D0170913E0197
:100FC0008FBF80912E0190912F01A0913001B0919F
:100FD0003101481B590B6A0B7B0B81E0453F5140A7
:100FE00061057105B0F080E014C02FB7F8948091CE
:100FF0003B0190913C01A0913D01B0913E012FBF7A
:1010000080932E0190932F01A0933001B093310172
:1010100081E02091340130913501253631050CF005
:1010200059C0882309F456C08FB7F89440913B010A
:1010300050913C0160913D0170913E018FBF8091C4
:101040002A0190912B01A0912C01B0912D01481BF8
:10105000590B6A0B7B0B8091340190913501880FFD
:10106000991F880F991F092E000CAA0BBB0B841720
:101070009507A607B70770F52FB7F89480913B0145
:1010800090913C01A0913D01B0913E012FBF809312
:101090002A0190932B01A0932C01B0932D01009174
:1010A000340110913501809132019091330144E671
:1010B00050E060E070E0801791071CF485E091E05B
:1010C00002C080E793E00E94160110933301009361
:1010D000320103C088E00E9488030E94B90483CED5
:1010E0005058BB27AA270E9488080C9467090E94C1
:1010F000590938F00E94600920F039F49F3F19F433
:1011000026F40C9456090EF4E095E7FB0C94500974
:10111000E92F0E94780958F3BA176207730784070A
:10112000950720F079F4A6F50C949A090EF4E09551
:101130000B2EBA2FA02D0B01B90190010C01CA0191
:10114000A0011124FF27591B99F0593F50F4503E3C
:1011500068F11A16F040A22F232F342F4427585F2E
:10116000F3CF469537952795A795F0405395C9F746
:101170007EF41F16BA0B620B730B840BBAF09150FE
:10118000A1F0FF0FBB1F661F771F881FC2F70EC09D
:10119000BA0F621F731F841F48F487957795679570
:1011A000B795F7959E3F08F0B0CF9395880F08F05C
:1011B0009927EE0F9795879508950E94E408689403
:1011C000B1110C949B0908950E94800988F09F57E3
:1011D00098F0B92F9927B751B0F0E1F0660F771F5B
:1011E000881F991F1AF0BA95C9F714C0B13091F051
:1011F0000E949A09B1E008950C949A09672F782FFC
:101200008827B85F39F0B93FCCF386957795679515
:10121000B395D9F73EF490958095709561957F4F81
:101220008F4F9F4F0895E89409C097FB3EF4909527
:101230008095709561957F4F8F4F9F4F9923A9F0AF
:10124000F92F96E9BB279395F6958795779567953E
:10125000B795F111F8CFFAF4BB0F11F460FF1BC082
:101260006F5F7F4F8F4F9F4F16C0882311F096E915
:1012700011C0772321F09EE8872F762F05C06623C3
:1012800071F096E8862F70E060E02AF09A95660F7C
:10129000771F881FDAF7880F9695879597F9089535
:1012A00097F99F6780E870E060E008959FEF80EC19
:1012B000089500240A9416161706180609060895BC
:1012C00000240A9412161306140605060895092E22
:1012D0000394000C11F4882352F0BB0F40F4BF2B91
:1012E00011F460FF04C06F5F7F4F8F4F9F4F0895D1
:1012F00057FD9058440F551F59F05F3F71F04795C7
:10130000880F97FB991F61F09F3F79F087950895AB
:10131000121613061406551FF2CF4695F1DF08C0CA
:10132000161617061806991FF1CF869571056105E7
:1013300008940895E894BB2766277727CB0197F98F
:1013400008950E94B4090C9467090E94590938F065
:101350000E94600920F0952311F00C9450090C9420
:10136000560911240C949B090E94780970F3959FEB
:10137000C1F3950F50E0551F629FF001729FBB278C
:10138000F00DB11D639FAA27F00DB11DAA1F649F28
:101390006627B00DA11D661F829F2227B00DA11DDB
:1013A000621F739FB00DA11D621F839FA00D611D61
:1013B000221F749F3327A00D611D231F849F600D82
:1013C000211D822F762F6A2F11249F5750409AF0AB
:1013D000F1F088234AF0EE0FFF1FBB1F661F771F37
:1013E000881F91505040A9F79E3F510580F00C9402
:1013F00050090C949B095F3FE4F3983ED4F3869523
:1014000077956795B795F795E7959F5FC1F7FE2BA1
:10141000880F911D9695879597F9089597FB072E4C
:1014200016F4009407D077FD09D00E946E0A07FCDD
:1014300005D03EF4909581959F4F089570956195E4
:101440007F4F0895A1E21A2EAA1BBB1BFD010DC000
:10145000AA1FBB1FEE1FFF1FA217B307E407F50764
:1014600020F0A21BB30BE40BF50B661F771F881F40
:10147000991F1A9469F760957095809590959B01D6
:10148000AC01BD01CF010895052E97FB1EF4009419
:101490000E945B0A57FD07D00E94220A07FC03D076
:1014A0004EF40C945B0A50954095309521953F4F32
:1014B0004F4F5F4F089590958095709561957F4F40
:1014C0008F4F9F4F08950E94880AA59F900DB49F4B
:1014D000900DA49F800D911D11240895AA1BBB1B84
:1014E00051E107C0AA1FBB1FA617B70710F0A61B24
:1014F000B70B881F991F5A95A9F780959095BC0145
:10150000CD010895EE0FFF1F0590F491E02D099491
:10151000A29FB001B39FC001A39F700D811D112434
:10152000911DB29F700D811D1124911D089581E0C0
:0C15300090E0F8940C949C0AF894FFCF13
:10153C00FF000000004A04B303E10397041204F017
:10154C00030404545241464649474F000D0A0044D7
:0A155C00697374616E63653A200044
:00000001FF
